:100000000C942A000C9434000C9434000C943400AA
:100010000C9434000C9434000C9434000C94340090
:100020000C9434000C9434000C9434000C94340080
:100030000C9434000C9434000C9434000C94340070
:100040000C9434000C9434000C9434000C94340060
:100050000C94340011241FBECFE5D8E0DEBFCDBF25
:100060000E94EA010C9450020C9400004423B9F160
:10007000413009F06BC0813089F028F08230C9F03E
:10008000833011F108952AB381E090E002C0880F17
:10009000991F6A95E2F7822B8ABB089527B381E006
:1000A00090E002C0880F991F6A95E2F7822B87BB08
:1000B000089524B381E090E002C0880F991F6A95EB
:1000C000E2F7822B84BB089521B381E090E002C067
:1000D000880F991F6A95E2F7822B81BB08958130C2
:1000E00091F028F08230D9F0833029F108952AB3B5
:1000F00081E090E002C0880F991F6A95E2F7809531
:1001000082238ABB089527B381E090E002C0880F64
:10011000991F6A95E2F78095822387BB089524B3DF
:1001200081E090E002C0880F991F6A95E2F7809500
:10013000822384BB089521B381E090E002C0880F40
:10014000991F6A95E2F78095822381BB0895442325
:10015000B9F1413009F06BC0813089F028F082306C
:10016000C9F0833011F108952BB381E090E002C013
:10017000880F991F6A95E2F7822B8BBB089528B3ED
:1001800081E090E002C0880F991F6A95E2F7822B08
:1001900088BB089525B381E090E002C0880F991FC5
:1001A0006A95E2F7822B85BB089522B381E090E047
:1001B00002C0880F991F6A95E2F7822B82BB0895CF
:1001C000813091F028F08230D9F0833029F1089500
:1001D0002BB381E090E002C0880F991F6A95E2F787
:1001E000809582238BBB089528B381E090E002C004
:1001F000880F991F6A95E2F78095822388BB08953E
:1002000025B381E090E002C0880F991F6A95E2F75C
:100210008095822385BB089522B381E090E002C0DF
:10022000880F991F6A95E2F78095822382BB089513
:10023000CF93C82F40E061E081E00E94A70040E03A
:1002400062E081E00E94A70040E063E081E00E945C
:10025000A7008BB39C2F907F8F70892B8BBB41E0C5
:1002600063E081E00E94A7008FEC97E00197F1F72F
:1002700000C0000040E063E081E00E94A7002BB3D3
:1002800030E1C39FC0011124922F9F70892B8BBB3B
:1002900041E063E081E00E94A7008FEC97E00197C6
:1002A000F1F700C0000040E063E081E00E94A70099
:1002B0008FE097E20197F1F700C00000CF91089519
:1002C00041E061E081E00E94360041E062E081E0CF
:1002D0000E94360041E063E081E00E94360041E088
:1002E00064E080E00E94360041E065E080E00E942A
:1002F000360041E066E080E00E94360041E067E0C1
:1003000080E00E9436002FEF80E792E0215080408D
:100310009040E1F700C0000083E30E94180182E3EF
:100320000E94180188E20E9418018CE00E941801C6
:1003300081E00E94180186E00E94180182E00E947C
:1003400018010895CF93C82F41E061E081E00E9439
:10035000A70040E062E081E00E94A70040E063E087
:1003600081E00E94A7008BB39C2F907F8F70892B18
:100370008BBB41E063E081E00E94A7008FEC97E037
:100380000197F1F700C0000040E063E081E00E94C7
:10039000A7002BB330E1C39FC0011124922F9F709F
:1003A000892B8BBB41E063E081E00E94A7008FECCA
:1003B00097E00197F1F700C0000040E063E081E0C2
:1003C0000E94A7008FE097E20197F1F700C00000BC
:1003D000CF9108950E943B020E9419020E943002B0
:1003E0000E9460012FEF89E698E121508040904003
:1003F000E1F700C000000E944C02C82F2FEF89E6F1
:1004000098E1215080409040E1F700C00000CC23EB
:1004100031F08C2F0E9436028C2F0E94A2012FEF08
:1004200089E698E1215080409040E1F700C000004B
:10043000E2CF41E064E081E00E94360041E065E007
:1004400081E00E94360040E066E081E00E943600D4
:1004500041E067E081E00E94360083E58DB90895B0
:1004600040E064E081E00E94A70008958FB9779B87
:10047000FECF8FB1089541E061E083E00E94360035
:1004800040E060E083E00E94360083E389B9539A3C
:10049000549A86E880BD08955F9BFECF8CB1089585
:0404A000F894FFCFFE
:00000001FF
