S0260000414D49542050726F6A656374204D6963726F636F6E74726F6C6C657220322E737265632C
S11300000C942A000C9447000C9447000C9447006D
S11300100C9447000C9447000C9447000C94470040
S11300200C9447000C9447000C9447000C94E9028C
S11300300C9447000C9447000C9447000C94470020
S11300400C9447000C9447000C9447000C94470010
S11300500C94470011241FBECFE5D8E0DEBFCDBF0E
S113006010E0A0E6B0E0EEEBF7E002C005900D92E0
S1130070AA3AB107D9F720E0AAEAB0E001C01D927C
S1130080A63BB207E1F70E948A020C94DD030C94AC
S1130090000041E063E083E00E947400089541E0C1
S11300A063E083E00E94E500089540E063E083E0BC
S11300B00E94E50008951F93CF93DF9380E0C0E092
S11300C0D1E010E0813029F40E944F00CF5F812FEE
S11300D005C0811103C00E9455008D2FC33090F3D9
S11300E0DF91CF911F9108954423B9F1413009F074
S11300F06BC0813089F028F08230C9F0833011F16F
S113010008952AB381E090E002C0880F991F6A9590
S1130110E2F7822B8ABB089527B381E090E002C006
S1130120880F991F6A95E2F7822B87BB089524B341
S113013081E090E002C0880F991F6A95E2F7822B54
S113014084BB089521B381E090E002C0880F991F19
S11301506A95E2F7822B81BB0895813091F028F0F3
S11301608230D9F0833029F108952AB381E090E0F8
S113017002C0880F991F6A95E2F7809582238ABB93
S1130180089527B381E090E002C0880F991F6A9513
S1130190E2F78095822387BB089524B381E090E041
S11301A002C0880F991F6A95E2F78095822384BB69
S11301B0089521B381E090E002C0880F991F6A95E9
S11301C0E2F78095822381BB08954423B9F141303D
S11301D009F06BC0813089F028F08230C9F0833097
S11301E011F108952BB381E090E002C0880F991FAC
S11301F06A95E2F7822B8BBB089528B381E090E0E7
S113020002C0880F991F6A95E2F7822B88BB089574
S113021025B381E090E002C0880F991F6A95E2F748
S1130220822B85BB089522B381E090E002C0880F41
S1130230991F6A95E2F7822B82BB0895813091F071
S113024028F08230D9F0833029F108952BB381E06E
S113025090E002C0880F991F6A95E2F78095822387
S11302608BBB089528B381E090E002C0880F991FEA
S11302706A95E2F78095822388BB089525B381E0CF
S113028090E002C0880F991F6A95E2F78095822357
S113029085BB089522B381E090E002C0880F991FC6
S11302A06A95E2F78095822382BB0895813089F0B4
S11302B028F08230C9F0833011F108952BB381E026
S11302C090E002C0880F991F6A95E2F782278BBBE2
S11302D0089528B381E090E002C0880F991F6A95C1
S11302E0E2F7822788BB089525B381E090E002C03D
S11302F0880F991F6A95E2F7822785BB089522B378
S113030081E090E002C0880F991F6A95E2F7822786
S113031082BB0895CF93C82F40E061E081E00E9442
S1130320E50040E062E081E00E94E50040E063E037
S113033081E00E94E5008BB39C2F907F8F70892B06
S11303408BBB41E063E081E00E94E5008FEC97E025
S11303500197F1F700C0000040E063E081E00E94F3
S1130360E5002BB330E1C39FC0011124922F9F708D
S1130370892B8BBB41E063E081E00E94E5008FECB8
S113038097E00197F1F700C0000040E063E081E0EE
S11303900E94E5008FE097E20197F1F700C00000AA
S11303A0CF91089541E061E081E00E94740041E052
S11303B062E081E00E94740041E063E081E00E9419
S11303C0740041E064E080E00E94740041E065E074
S11303D080E00E94740041E066E080E00E947400C6
S11303E041E067E080E00E9474002FEF80E792E034
S11303F0215080409040E1F700C0000083E30E9458
S11304008A0182E30E948A0188E20E948A018CE0C8
S11304100E948A0181E00E948A0186E00E948A018A
S113042082E00E948A010895CF93C82F41E061E0E1
S113043081E00E94E50040E062E081E00E94E50086
S113044040E063E081E00E94E5008BB39C2F907F45
S11304508F70892B8BBB41E063E081E00E94E50053
S11304608FEC97E00197F1F700C0000040E063E0F3
S113047081E00E94E5002BB330E1C39FC001112449
S1130480922F9F70892B8BBB41E063E081E00E9437
S1130490E5008FEC97E00197F1F700C0000040E021
S11304A063E081E00E94E5008FE097E20197F1F7B5
S11304B000C00000CF9108950F931F93CF93FC01C8
S11304C08081882359F08F01C0E00E941402CF5F1D
S11304D0F801EC0FF11D80818111F7CFCF911F91AD
S11304E00F91089581E00E948A01089541E060E03F
S11304F083E00E94740041E061E083E00E947400A4
S1130500089560E083E00E94560161E083E00E9468
S1130510560108950E943A030E94D2010E94760275
S11305200E9449000E94560368EB7BE080E090E063
S11305300E947703D0E0C0E010E081E00E94510304
S11305408233F9F018F4813331F0F7CF833379F142
S11305508433B1F1F2CFC1110AC00E9472020E9429
S1130560810280E690E00E945C02C1E0E6CF0E9436
S113057072020E94810288E690E00E945C02C12F10
S1130580DCCFD1110AC00E9472020E944F0081E7A1
S113059090E00E945C02D1E0D0CF0E9472020E94DF
S11305A055008EE790E00E945C02D12FC6CF0E94D6
S11305B072020E9463038CE890E00E945C02BDCF4B
S11305C00E9472020E946D038BE990E00E945C021B
S11305D0B4CF1F920F920FB60F9211242F933F9313
S11305E04F935F936F937F938F939F93AF93BF9337
S11305F0EF93FF938091AA009091AB00A091AC007F
S1130600B091AD000196A11DB11D8093AA009093F5
S1130610AB00A093AC00B093AD004091B2005091F8
S1130620B3006091B4007091B50084179507A607D4
S1130630B70779F40E9481020E945B001092AA001D
S11306401092AB001092AC001092AD008091AE00FD
S113065082BFFF91EF91BF91AF919F918F917F9155
S11306606F915F914F913F912F910F900FBE0F901B
S11306701F90189540E064E081E00E94740040E01F
S113068065E081E00E94740041E066E081E00E9440
S1130690740040E067E081E00E94740080E48DB95A
S11306A008958FB9779BFECF8FB1089583B7877F65
S11306B083BF83B78F7B83BF8FB780688FBF89B7B2
S11306C0816089BF089583B7816083BF83B78D7FBD
S11306D083BF83B7846083BF089583B78E7F83BF4E
S11306E083B78D7F83BF83B78B7F83BF08950F93B9
S11306F01F939B01AC01A8EEB3E00E94C3038B01DE
S11307009C010F2EFFE03695279517950795FA95CE
S1130710D1F7F02D0093B2001093B3002093B400EE
S11307203093B500AB01BC01689416F876956795D3
S1130730579547951694D1F780E091E0A0E0B0E09A
S1130740841B9109A109B1098093AE009093AF0075
S1130750A093B000B093B10082BF8091B200909199
S1130760B300A091B400B091B5000196A11DB11DD4
S11307708093B2009093B300A093B400B093B500FB
S11307801F910F9108950E94CE03A59F900DB49FD1
S1130790900DA49F800D911D11240895A29FB00176
S11307A0B39FC001A39F700D811D1124911DB29FA1
S11107B0700D811D1124911D0895F894FFCF42
S11307BE4C656420204F4E004C656420204F464605
S11307CE0042555A5A4552206973204F4E004255E5
S11307DE5A5A4552206973204F46460054696D6536
S11307EE722069732053746172740054696D65725A
S10D07FE2069732053746F7000002B
S9030000FC
